{
  "contractName": "ZombieFactory",
  "abi": [
    {
      "constant": true,
      "inputs": [
        {
          "internalType": "uint256",
          "name": "",
          "type": "uint256"
        }
      ],
      "name": "zombies",
      "outputs": [
        {
          "internalType": "string",
          "name": "name",
          "type": "string"
        },
        {
          "internalType": "uint256",
          "name": "dna",
          "type": "uint256"
        }
      ],
      "payable": false,
      "stateMutability": "view",
      "type": "function"
    }
  ],
  "bytecode": "0x60806040526010600055600054600a0a60015534801561001e57600080fd5b506101dc8061002e6000396000f3fe608060405234801561001057600080fd5b506004361061002b5760003560e01c80632052465e14610030575b600080fd5b61005c6004803603602081101561004657600080fd5b81019080803590602001909291905050506100de565b6040518080602001838152602001828103825284818151815260200191508051906020019080838360005b838110156100a2578082015181840152602081019050610087565b50505050905090810190601f1680156100cf5780820380516001836020036101000a031916815260200191505b50935050505060405180910390f35b600281815481106100eb57fe5b9060005260206000209060020201600091509050806000018054600181600116156101000203166002900480601f0160208091040260200160405190810160405280929190818152602001828054600181600116156101000203166002900480156101975780601f1061016c57610100808354040283529160200191610197565b820191906000526020600020905b81548152906001019060200180831161017a57829003601f168201915b505050505090806001015490508256fea265627a7a723158201cd070e21385b68b296d9960203bd5e8e3e28421e65c7af82060572756dab65464736f6c63430005100032",
  "source": "pragma solidity >=0.5.0 <0.6.0;\r\n\r\ncontract ZombieFactory \r\n{\r\n    uint dnaDigits = 16;\r\n    uint dnaModulus = 10 ** dnaDigits;\r\n\r\n    struct Zombie \r\n    {\r\n        string name;\r\n        uint dna;\r\n    }\r\n\r\n    Zombie[] public zombies;\r\n\r\n    function _createZombie(string memory _name, uint _dna) private \r\n    {\r\n        zombies.push(Zombie(_name, _dna));\r\n    }\r\n\r\n    function _generateRandomDna(string memory _str) private view returns (uint)\r\n    {\r\n        uint rand = uint(keccak256(abi.encodePacked(_str)));\r\n\r\n        return rand % dnaModulus;\r\n    }\r\n}",
  "sourcePath": "D:/Dev/Projects/CryptoZombies/contracts/zombiefactory.sol",
  "compiler": {
    "name": "solc",
    "version": "0.5.16+commit.9c3226ce.Emscripten.clang"
  },
  "schemaVersion": "3.4.1",
  "updatedAt": "2021-06-25T15:49:07.534Z",
  "devdoc": {
    "methods": {}
  },
  "userdoc": {
    "methods": {}
  }
}